:020000040800F2
:10000000A8070020D9010008D11E0008091B00081C
:10001000091D00080D140008B53300080000000099
:10002000000000000000000000000000B1280008EF
:10003000851500080000000005220008CD280008F2
:10004000F3010008F3010008F3010008F3010008C0
:10005000F3010008F301000889150008F301000806
:10006000F3010008F3010008B1150008F3010008CE
:10007000F3010008F3010008F3010008F301000890
:10008000F3010008F3010008F3010008F301000880
:10009000F3010008F3010008F3010008F301000870
:1000A000F3010008F3010008F3010008F301000860
:1000B000F3010008F3010008DD290008F30100083E
:1000C000F3010008F3010008F3010008F301000840
:1000D000F30100083D2F0008D13100081D3200084F
:1000E000F3010008F3010008F301000800F002F832
:1000F00000F063F814A696E8000CB244B344DA4565
:1001000001D100F05AF8BAE80F000FA696E83000C7
:10011000A5EB040504EB0607AAEB0704A7F101070A
:100120004FEA15154FEA3414A4F10104AC4201D38F
:1001300000F043F813F0010F18BFFB1A43F001035E
:1001400000F001F8DBE71847386200005862000051
:10015000103A24BF78C878C1FAD8520724BF30C8F3
:1001600030C144BF04680C60704700007047000055
:100170000023002400250026103A28BF78C1FBD8B0
:10018000520728BF30C148BF0B607047662905F091
:10019000CC87642900F07680732900F02B8400203E
:1001A00070471FB500F03CFC04000020002104F063
:1001B00065FEE0601FBD10B510BD00F039FD1146B1
:1001C000FFF7EFFF03F0BCFC00F057FD03B4FFF7AF
:1001D000F2FF03BC03F032FB09488047094800479F
:1001E000FEE7FEE7FEE7FEE7FEE7FEE7FEE7FEE7E7
:1001F000FEE7FEE704480549054A064B7047000044
:10020000D1280008ED000008A8010020A807002060
:10021000A8030020A80300200FB4044910B503AAC6
:10022000029800F0EBFB10BC5DF814FB48010020C5
:1002300070B50C460546012A05D02878800600D501
:10024000EA69002302E0012305E05B1C934202D22D
:10025000E05C0028F9D1A869E618C01AA861286AEC
:10026000184428622846AFF3008004E0D5E9012154
:1002700014F8010B9047B442F8D32846AFF300803E
:1002800070BD00002DE9F041064600241068752974
:10029000314616A510D0AFF30080002802DA4042A4
:1002A00013A507E031688A0701D512A502E04907C6
:1002B00004D511A5012401E0AFF3008000210A223A
:1002C00006F1240709E0B0FBF2FCB0FBF2F302FBFD
:1002D0001C00303078541846491C0028F3D12346BE
:1002E0002A463046BDE8F04100F0F2B800000000B8
:1002F0002D0000002B000000200000002DE9F05F21
:10030000894604464FF0000ADFF824B1FB44C0F8E8
:1003100020A02046E168884700287DD0252806D007
:10032000D4E901219047206A401C2062F1E70025B2
:100330005F462046E16888472028064607DB312EC5
:1003400005D2B81910F8200C08B10543F1E7A80749
:1003500001D525F00405C4F81CA00027C4F818A096
:100360002A2E09D0304604F065F838B304EB87082C
:10037000303EC8F8186019E059F8041B204604EB19
:1003800087029161E1688847012F064618D1E0692C
:10039000002820DA25F020051DE0D8F8180000EB31
:1003A000800006EB40003038C8F818002046E168AD
:1003B0008847064604F03EF80028EED1012F0AD007
:1003C0002E2E08D12046E16888477F1C0646022F62
:1003D00045F02005C4DBA069002803DA404245F05F
:1003E0000105A061E80701D025F01005A6B1A6F12E
:1003F0004100192802D8203645F400654A463146A6
:10040000204625604D46FFF7C1FE60B1012807D0A8
:10041000ED1D25F0070000E007E000F1080978E78E
:1004200005F1040975E730467AE7206ABDE8F09FD8
:100430000E5F0000014903F0C1BA0000480100202E
:1004400010B5044603E003F0B9FA401C09D014F8D3
:10045000010B05490028F6D1BDE810400A2003F041
:10046000ADBA4FF0FF3010BD4801002040EA010353
:10047000024630B59B0710D14FF0013400E008C2AE
:1004800008C91D1B9D4315EAC41FF8D013F0FF01D6
:1004900002F8011B0DD01B0AF8E711F8013B002BF5
:1004A00002F8013B05D011F8013B002B02F8013B9B
:1004B000F3D130BD70477047704710B500F0B4FA03
:1004C000006810BD10B5044600F0AEFA046010BD1F
:1004D0002DE9F0470D4699469246044600F124085E
:1004E0000168880604D5E06921F01001216000E070
:1004F0000120A84201DD471B00E00027A1697A190D
:1005000002EB0900081AA0612078C00602D4204638
:10051000AFF30080002608E0D4E901211AF80600B4
:100520009047206A401C761C20624E45F4DB207800
:10053000C0060AD52046AFF3008006E0D4E90121C9
:1005400030209047206A401C2062381EA7F1010726
:10055000F4DC07E0D4E9012118F805009047206A8F
:10056000401C2062281EA5F10105F3DC2046AFF3F4
:1005700000802078000602D50220BDE8F087012027
:10058000FBE72DE9FF4F0C461E464FF0FF378BB0BF
:10059000D2E90001DDF860800A908A46C1F30A556D
:1005A00005B93D46002108464FF00000BAF1000FA2
:1005B00000F4400005DA00EB80004FF4400101EA4E
:1005C00050004FEA9059B9F1010F00DDB9460A9881
:1005D00050EA4A000ED044F61050A5F2FF354543CC
:1005E0002F14B8F1000F1ED07542291E1EDDC9F16F
:1005F00000021CE0B8F1010F4FF0000001D03021E3
:1006000003E0F24305E02154401CB042FBDB3046DE
:100610000022002121540B99C1F80880C1E9002073
:100620000FB0BDE8F08FBD1B6D1CDEE74A4600DA57
:10063000694206A800F082FA06AB93E8070003AB14
:1006400083E8070050460A9903F0A1FA8DE80700F5
:10065000A0F500501F3800900398002D0ADD42F2EB
:100660001F014A460844002303A90390684603F08B
:100670000BFD09E0A0F500504A461F38002303A9EE
:100680000390684603F015FD8DE807000004000C98
:1006900003D04FF0FF30410800E01046B8F1000FE2
:1006A00003D00022009215461EE0751E05D400F00E
:1006B000BFF9303262556D1EF9D5B34601220843A9
:1006C00002D000227F1C04E02078302801D10022D3
:1006D0007F1E002A099784D01DE0112D07DA00F053
:1006E000A7F9303262556D1C50EA0102F5D108437A
:1006F00002D00098C8B10EE00021681E05E0235C1E
:10070000625C63542254401E491C8142F7DBAB46B5
:10071000A81B401E0990002004F80B000B98099AB2
:10072000C0F80880C0E9002B7AE711264FF00008D6
:1007300057E72DE9F04F88460446D21D22F0070105
:1007400091B0D1E90001CDE90A0103F0E9FD0246CB
:100750000B98C00F01D02D2007E02068810701D53C
:100760002B2002E0202101EAC000032A099001D0D9
:10077000072A05DB03464146204600F09FF90BE1BE
:100780002078800601D5E06900E00620B8F1650F09
:10079000814606D0B8F1660F18D0B8F1670F70D156
:1007A00031E00020B9F1110F009001DB112301E0CD
:1007B00009F101030AAA01A90CA8FFF7E2FEDDE98D
:1007C0000C70002609F10105834647E001204B46E5
:1007D00000904FF000470AAA01A90CA8FFF7D1FE2C
:1007E000DDE90DB00C995D46002610B909F1010054
:1007F0000D18B9EB050003D4C0F1FF3609F101056E
:10080000A5EB09002BE0B9F1010F01DA4FF0010966
:100810000020B9F1110F0090484601DD112300E0DE
:1008200003460AAA01A90CA8FFF7ABFEDDE90C708C
:100830004D4600268346207800070AD4AB4500DAEF
:100840005D4601A8012D04DD411911F8011C302974
:1008500007D04F4502DA17F1040F04DA012082466F
:100860000FE06D1EEEE7002F02DCED1B3E4403E0BF
:10087000781CA84200DD7D1CB81B00F1010A4FF076
:1008800000472078000703D4AA4501DB4FF0FF3A68
:100890000021B7F1004F0DF143088DF8431024D02B
:1008A00002202B23002F01DA7F422D230A21021E72
:1008B000A0F1010000DC5FB197FBF1FC97FBF1F2C6
:1008C00001FB1C7C17460CF1300C08F801CDEEE75B
:1008D000A8F1010003702188090501D5452100E038
:1008E0006521A0F1010800F8011C09980FA9A1EBEE
:1008F0000807FF1D00B10120411901EBEA70A16951
:100900003844081A401EA0612078C00602D4204650
:10091000AFF30080099828B1D4E901219047206AFB
:10092000401C20622078C00622D52046AFF300800C
:100930001EE0002E04DBB34502DD01A8805D00E06F
:100940003020D4E901219047206A401C2062761CA7
:10095000AAF101005FEA000A0AD100F061F8C0685C
:100960000168405CD4E901219047206A401C206264
:10097000281EA5F10105DCDC07E0D4E9012118F807
:10098000010B9047206A401C2062381EA7F1010726
:10099000F3DC2046AFF30080032011B041E60000F5
:1009A00001694A1C02610878704700B58FB0CDE933
:1009B00001310021059105497944CDE90310114623
:1009C0006846FFF79BFC0FB000BD0000E5FFFFFF8E
:1009D00010B5436913B1AFF3008001E0FFF728FCC5
:1009E000012010BD127800F124010A7000224A7023
:1009F0000122EDE711684FF0FF32E9E7074B70B5D0
:100A00000D467B44FFF7D1FF0446284600F008F965
:100A100010B14FF0FF3070BD204670BDB72F000001
:100A20000048704728000020004870470800002058
:100A300030B5B0F10A0271F100034FEA900E4EEAB0
:100A4000817EB0EB0E0061EB91014FEA101E4EEA81
:100A5000017E10EB0E0041EB11114FEA102E4EEA11
:100A6000016E10EB0E0041EB11214FEA104E4EEAE1
:100A7000014E10EB0E0041EB1141401841F1000115
:100A80004FEAD00040EA41704FEAD1014FEA8104B9
:100A900044EA907410EB800544EB01046D1944EBBB
:100AA0000404521BA3414FF0000348BF0A3200D593
:100AB00030BD401C41F1000130BD00002DE9F04186
:100AC0001F46044603260168072A01F4006004DB80
:100AD00008B116A505E016A503E008B115A500E0CC
:100AE00015A521F010002060A069C01EA0610FB103
:100AF000401EA0612046AFF300804FB1D4E9012130
:100B000038469047206A401C2062C01C206206E0E4
:100B1000206AFAE7D4E9012115F8010B9047761E07
:100B2000F8D22046AFF30080BDE8F0814E414E0080
:100B30006E616E00494E4600696E66002DE9F04711
:100B4000814616468AB0354878440DC88DE80D00B8
:100B500032487844801C03AC0DC884E80D0041F68F
:100B60009B300844372190FBF1F290FBF1F5A5F1A1
:100B7000800501FB12041B3C02D56442012000E009
:100B80000020DFF898A080460027FA44AAF1BE0AA8
:100B90000EE0E0070AD03246684607EB4701012322
:100BA0000AEB810103F085FA8DE8070064107F1CD1
:100BB000002CEED1194F7F44AE3F19E0E80715D065
:100BC00007EB04100DF1180A90E80E008AE80E00F9
:100BD000C068F04201D1981908903246012306A955
:100BE00003A803F066FA03AB83E807006D10641CEA
:100BF000002DE3D14FF0010332466946B8F1000FF2
:100C000003A802D003F040FA01E003F052FAC9E968
:100C10000001C9F808200AB0BDE8F087F0570000CD
:100C2000007B00F0800070470048704708000020FB
:100C30007546FFF7F9FFAE4605006946534620F0BA
:100C40000700854618B020B5FFF7D4FABDE820406C
:100C50004FF000064FF000074FF000084FF0000B78
:100C6000AC46ACE8C009ACE8C009ACE8C009ACE8E7
:100C7000C00921F007018D46704710B50446AFF357
:100C800000802046BDE81040FFF7A0BA4FF0013CBD
:100C900050F8042B51F8043B9A4221D1A2EB0C03EB
:100CA000934313EACC1317D150F8042B51F8043BAB
:100CB0009A4215D1A2EB0C03934313EACC130BD148
:100CC00050F8042B51F8043B9A4209D1A2EB0C03D3
:100CD000934313EACC13DBD04FF00000704700BF02
:100CE000D01A01BAB1FA81F101F0180122FA01F02B
:100CF000CB40DBB2C0B2C01AC1F120012CFA01F323
:100D0000D11A914311EAC311E6D170472DE9F04F92
:100D10008BB040F60044C4F201042046102100F0DC
:100D200011FD20464FF4007100F00CFD40F2D80098
:100D30000021C2F2000005AD421852782E2A03D0DD
:100D40006A5401311329F7D1002108AE0022002393
:100D500006E000BFB7540132132901F1010109DA9D
:100D6000475C2C2F04BF01230131012BF4D1475CD8
:100D70002E2FEFD19DF814104FF0010B4FF000080B
:100D80004FF00A0A0024039109E000BF2D29AAF1BF
:100D9000010A08BF4FF0FF3B1AF101002CD015F8F3
:100DA0000A0030380928F1D804F0DCFA04904046F3
:100DB000894604F0C0FA0B46002102460020C4F226
:100DC000240103F03FFB054620460E4604F0B3FA2B
:100DD000044604980F4649462A46334604F012FB5F
:100DE00022463B4604F060F804F076FA039905AD1C
:100DF000044608F10108C9E79DF820104FF00109E9
:100E000000274FF00A0800220DF1200A009108E0A7
:100E10002D29A8F1010808BF4FF0FF3918F1010092
:100E20002FD01AF8080030380928F1D8924604F07B
:100E300099FACDE90310384604F07DFA0B460021FB
:100E400002460020C4F2240103F0FCFA25460446C1
:100E500050460E4604F06FFACDE90110DDE90310AB
:100E6000224633460DF1200A2C4604F0CBFADDE988
:100E7000013204F019F804F02FFA00990246013704
:100E8000C6E740F26801C2F200010B6840F26C064E
:100E900002FB09F0C2F200060BFB04F246F8230045
:100EA00040F28004581CC2F20004052844F82320B4
:100EB000086040F0EB80002040F6004A0860052101
:100EC000C4F2010A002200BF06EB820356F822702A
:100ED0005D68AF42C4BF46F822505F6004EB8203F6
:100EE00054F822705D68AF42C4BF44F822505F607E
:100EF00001329142E8D101300428A1F10101E1D190
:100F0000B068A168C0EBC01045F64C1246F2B703BA
:100F100002EB4000CBF20B63C1EBC11180FB037508
:100F200002EB410181FB03232844C211194402EB67
:100F3000D070CA1102EBD1714EF61A730A1AC0F2C0
:100F4000010340F2E63702FB073240F2094C084445
:100F500040F27D11C8F2021C081A82FB0C5300FB00
:100F600007F181FB0C15991800FB0750CA1102EB21
:100F7000D171C21102EBD070B942A1F5F072A8BFD5
:100F80003946A0F5F073B842B8BF074621EAE170D0
:100F9000A0F2F31527EAE770272AA0F2F31738BF6B
:100FA0000025272B38BF0027002DC5F5FA790AD474
:100FB0001FFA89F14FF0804001F064FF5046402154
:100FC00000F0C0FB09E0684281B24FF0804001F0C0
:100FD00059FF5046402100F0B3FB002F1FFA87F85D
:100FE00021D44FF08040414601F04AFF5046202175
:100FF00000F0A6FB002D23D41FFA89F14FF08040AA
:1010000001F03AFF50464FF4807100F09BFB002F37
:1010100023D44FF08040414601F030FF50468021FC
:1010200000F08EFB24E007F5FA7081B24FF08040AB
:1010300001F026FF5046202100F084FB002DDBD577
:10104000684281B24FF0804001F016FF50464FF4E5
:10105000807100F075FB002FDBD507F5FA7081B2C7
:101060004FF0804001F00AFF5046802100F06AFBFB
:101070000020C6E90000C6E902003061C4E90000B2
:10108000C4E902002061012002F02CFC0021ADF82F
:101090001C10CDE90511CDE908110120ADF828108B
:1010A0000BB0BDE8F04F02F01DBC00002DE9F0438D
:1010B00081B040F2C001C2F200010A784EF634203D
:1010C0004C2A46F26762CFF6FD70C6F2666221D105
:1010D0008B78CF7803EB830307EB4303C3EBC31396
:1010E00000EB430383FB02374B79897903EB8303DE
:1010F00001EB4301C1EBC11100EB410181FB021384
:10110000791101EBD7715F1107EBD373A1F17F0C5C
:101110007F3B02E000234FF0000C40F20417C2F2C4
:1011200000073E78522E21D1BE78FD7806EB860668
:1011300005EB4606C6EBC61600EB460686FB0265C7
:101140007E79BF7906EB860607EB4607C7EBC71724
:1011500000EB470080FB0207681100EBD570A0F19F
:101160007F02781100EBD7707F3801E00020002269
:101170000344ACEB03074EF61A7EBE18C0F2010E14
:1011800040F2E63006FB00E640F20944C8F20214E1
:1011900086FB041803EB0C015318C3F17F0303FB18
:1011A00000F585FB045CBD1A05FB00E5511A01FB47
:1011B00000E185FB047981FB042708EB060203FBB1
:1011C00000C3D61106EBD272DE1106EBD37309EB26
:1011D0000506F5113944824205EBD6764FEAE11750
:1011E000A2F5F07CA8BF0246834207EBD171A3F5BC
:1011F000F07EA8BF03468642A6F5F074A8BF064657
:10120000A1F5F0758142B8BF084622EAE271A1F269
:10121000F31123EAE372BCF1270FA2F2F31726EAD7
:10122000E67238BF0021BEF1270FA2F2F31620EAC2
:10123000E07038BF0027272CA0F2F31838BF002633
:10124000272D40F6004438BF4FF000080029C4F2B3
:10125000010431D4C1F5FA7081B24FF0804001F041
:1012600011FE2046402100F06DFA002F30D4B9B2B3
:101270004FF0804001F004FE2046202100F060FA8B
:10128000002E32D4C6F5FA7081B24FF0804001F0E2
:10129000F3FD20464FF4807100F054FAB8F1000FCE
:1012A00031D41FFA88F14FF0804001F0E7FD20466D
:1012B000802100F045FA31E0484281B24FF0804091
:1012C00001F0E0FD2046402100F03AFA002FCED593
:1012D00007F5FA7081B24FF0804001F0D1FD204651
:1012E000202100F02FFA002ECCD5704281B24FF0B1
:1012F000804001F0C1FD20464FF4807100F020FADB
:10130000B8F1000FCDD508F5FA7081B24FF08040EA
:1013100001F0B4FD2046802100F014FA0A2001B04B
:10132000BDE8F04302F0DEBA10B540F2A010C2F200
:1013300000000078013806284BD8DFE800F0044FA1
:101340000F2E08535A00BDE81040FFF7AFBE40F221
:101350000110C2F200000021017010BD00F0D6FBA8
:101360000446C82002F0FAFA0021C4F270112046A7
:1013700004F0CCFB002818BF10BDC82002F060FAB2
:101380004FF4C87002F0AEFAC82000F08DFC4FF4A4
:10139000C870BDE8104002F0A5BA00F0B7FB00210C
:1013A000C4F22011044604F0B1FB48B30021C4F29A
:1013B000F011204604F0AAFB58B90021C4F2A01194
:1013C000204604F0B8FB20B9C820BDE8104002F068
:1013D000C5BA0620BDE8104000F098BCBDE810403A
:1013E000FFF794BC40F20110C2F20000012101702D
:1013F00010BD40F20110C2F200000221017010BDC8
:10140000C820BDE8104002F01BBA0000FEE7000053
:101410002DE9F04100F032FE40F29404C2F20004E3
:10142000204600F079FE40F20408C2F2000890B9AC
:10143000207820280FD061784C2808BF59290ED079
:101440004C2808BF58290CD050280CD3E278532AD6
:1014500009D2032018E0012088F8000019E00120DB
:1014600012E0022010E0422808BF5A2909D047287C
:1014700008BF532907D0432808BF442906D10620B6
:1014800002E0042000E0052088F800000A2002F0B5
:1014900029FA0A2002F026FA98F8000040F2D40552
:1014A000013840F2D50640F200170528C2F20005C7
:1014B000C2F20006C2F200071CD8DFE800F0030DFC
:1014C000073E2313FFF730FF14E000BF00F03CF9A4
:1014D00028780128FAD10AE001F06EFF307801285F
:1014E000FAD104E001F01EF838780128FAD1012081
:1014F00088F800000020287030703870BDE8F04196
:1015000001F04CB800F002FB0021C4F220110446A7
:1015100004F0FCFA70B30021C4F2F011204604F08C
:10152000F5FA58BB0021C4F2A011204604F003FBD9
:1015300020BBC82002F012FADCE700F0E7FA04460C
:10154000C82002F00BFA0021C4F27011204604F00A
:10155000DDFA0028CED1C82002F072F94FF4C8702D
:1015600002F0C0F9C82000F09FFB4FF4C87002F0F1
:10157000B9F9BFE7C82002F063F9BBE7062000F025
:10158000C5FBB7E77047000080B5012000F02AF8DE
:10159000002808BF80BD40F2B411C4F222210868BF
:1015A000C24301200A60BDE8804000F015B8000089
:1015B00080B5102000F016F8002808BF80BD40F26A
:1015C000B411C4F222210868C24310200A60BDE8A9
:1015D000804000F001B8000040F21441C4F2010163
:1015E0000860704740F20041C4F201010A6849698D
:1015F0000240084018BF0120002A18BF01221040F5
:1016000070470000CA7802F00F0CD30644BF8B78F5
:101610004CEA030C2DE9F04709880B0624D08646D6
:101620005EF8143B00F1100800254FF0010A4FF05E
:101630000F09002406E000BF37600134082C05F1D3
:10164000040510D00AFA04F70F42F6D009FA05F69D
:10165000B3430CFA05F63343282A7646ECD0482AE1
:10166000EBD14646E8E70360B1F5807F38BFBDE8BF
:10167000F087436800F1100E00F1140A00254FF4C2
:1016800080794FF00F08002706E000BF2660013781
:10169000082F05F1040510D009FA07F60E42F6D01E
:1016A00008FA05F4A3430CFA05F42343282A544608
:1016B000ECD0482AEBD17446E8E74360BDE8F087F8
:1016C000B0B540F2040CC4F2010C0CF118031A4638
:1016D000B0F1FF3FC4BF0422C4F20102146800F459
:1016E0004012B2F5401F1FFA80FE08D1DCF800500E
:1016F00024F0706225F07064CCF8004011E0C20262
:1017000006D46FF00F0202EA50420EFA02F204E031
:10171000C0F30342032505FA02F224EA020242F072
:1017200070626FF00F0404EA504400290EFA04F5C9
:1017300018BF2A43B0F1FF3FC8BF63461A60B0BD6F
:1017400041617047016170472DE9F04F83B040F669
:101750000045C4F2010500F091FC28461021FFF776
:10176000F1FF28464FF40071FFF7ECFF40F2CA0A80
:10177000C2F2000A504600F0CFFC30B146F26D30A4
:10178000C0F60000FEF75CFEDAE09AF801009AF875
:10179000021000EB800001EB40004EF63421C0EB5C
:1017A000C010CFF6FD7146F2676201EB4000C6F251
:1017B000666280FB02039AF804009AF8057000EB59
:1017C000800007EB4000C0EBC01001EB400080FB45
:1017D000020158114A1100EBD37002EBD1710A18C3
:1017E00041F2E603401A4EF61A71CFF6FE7340F24C
:1017F000E637C0F2010102FB073240F2094300FB69
:101800000710C8F2021382FB036480FB0313A118C4
:10181000CA11184402EBD171C21102EBD070B94267
:10182000A1F5F072A8BF3946A0F5F073B842B8BF71
:10183000074621EAE170A0F2F31627EAE770272AAB
:10184000A0F2F31738BF0026272B38BF0027002E41
:10185000C6F5FA790AD41FFA89F14FF0804001F0F9
:1018600011FB28464021FFF76DFF09E0704281B26D
:101870004FF0804001F006FB28464021FFF760FF53
:10188000002F1FFA87F821D44FF08040414601F025
:10189000F7FA28462021FFF753FF002E23D41FFA22
:1018A00089F14FF0804001F0E7FA28464FF480714B
:1018B000FFF748FF002F23D44FF08040414601F04E
:1018C000DDFA28468021FFF73BFF24E007F5FA7098
:1018D00081B24FF0804001F0D3FA28462021FFF773
:1018E00031FF002EDBD5704281B24FF0804001F015
:1018F000C3FA28464FF48071FFF722FF002FDBD593
:1019000007F5FA7081B24FF0804001F0B7FA28462F
:101910008021FFF717FF9AF800004D2810D19AF8A0
:10192000010050280CD19AF80200552808D1062051
:1019300000F0ECF940F2D400C2F200000121017085
:1019400040F20110C2F20000007802287CD0012889
:1019500028D0002840F0D28040F2A405C2F2000551
:1019600040F2F404286840F2EC0840F2F009C2F2B8
:101970000004C2F20008C2F2000964216422234676
:10198000CDE9009802F02CF8286840F2A801B0F5E3
:10199000B47FC2F2000100F08480002840F0838010
:1019A00000227FE040F2A008C2F2000898F8000090
:1019B0004CF6CD41CCF6CC4148434CF6CC414FEAF5
:1019C000B000C0F6CC41884265D840F2BD0940F273
:1019D0009E0740F2EC0A40F2F00B40F2F404C2F22F
:1019E00000090020C2F20007C2F2000AC2F2000B96
:1019F000C2F2000489F8000038786421642223468A
:101A0000CDE900BA01F0ECFF206804F09DF9DBF8A5
:101A100000100546084604F097F9DAF8001006466B
:101A2000084604F091F902462846314600F006FDCA
:101A3000387899F800103C303870481CC1B206293B
:101A400089F80000D8D326E040F29F04C2F20004D7
:101A5000207800F04FFC40F2A100C2F200000078B4
:101A60004CF6CD41CCF6CC4148434CF6CC414FEA44
:101A7000B000C0F6CC41884202D8207801302070F6
:101A8000207840F2A108C2F20008092822BF0020F5
:101A900088F80000207098F80000013088F80000F5
:101AA0002CE001220A70097821B1012905D16FF0DB
:101AB000010100E002210844286040F2BD07C2F2A3
:101AC00000070020387000BF206804F03DF9D9F805
:101AD00000100546084604F037F9D8F8001006460D
:101AE000084604F031F902462846314600F0A6FCCB
:101AF00038780130C1B206293870E5D30A2003B026
:101B0000BDE8F04F01F0EEBEFEE700002DE9F04F1A
:101B100081B048F22C1540F6000440F2A21B40F2BE
:101B20000008C4F221254FF00009C4F20004C2F2FB
:101B3000000BC4F2682800264FF0000A0120E86775
:101B4000142001F0EDFEC5F87C9000BF2868002845
:101B5000FCD02046002101F099F920460121ABF884
:101B6000009000F05BFF00BF28680128FCD02046F1
:101B700000210AF1010A00F051FFBBF80070204675
:101B800001F06EF84FF47A7107FB01073220A4F8D8
:101B9000249001F0A7FE384604F00AF9414603F00C
:101BA000DDFF0146304603F041FFBAF1050F06465E
:101BB000C4D10021C4F2A001304603F0CFFF01B030
:101BC000BDE8F08F70B586B00820012100F034FB2D
:101BD00040F6000440F20040C4F20004C1F20300E9
:101BE00004F582350DF10606CDF80600284631468B
:101BF000FFF708FD28464FF48061FFF7A1FD4FF481
:101C00000060ADF8060004208DF809002846314632
:101C1000FFF7F8FC28464FF40061FFF791FD042020
:101C2000012100F0F1FA204600F002FF4720ADF854
:101C30000A000020ADF810000020C0F2E730039049
:101C40000DF10A01204601F023F92046012100F0A0
:101C5000DDFE20460121012201F010F84FF4A060C2
:101C600000F0C6FA1E20C0F20010059005A800F092
:101C70008FFA2046002100F0D1FE06B070BD0000B2
:101C800080B582B01020012100F0D6FA42F20000A7
:101C9000C1F20300019041F20000C4F2010001A969
:101CA000FFF7B0FC02B080BD70B50446C0F5FA7015
:101CB00086B24FF08040314601F0DEF840F6004534
:101CC000C4F2010528464FF48071FFF73BFD4FF049
:101CD0008040314601F0D2F828468021FFF732FDDE
:101CE0004FF08040214601F0CBF828462021FFF735
:101CF00027FD4FF08040214601F0C4F828464021DE
:101D0000BDE87040FFF71CBDFEE7000010B50728D6
:101D100038D0062818BF10BD40F60044C4F20104B4
:101D200020461021FFF70EFD20464FF40071FFF70B
:101D300009FD4FF080404FF4FA7101F09DF8204604
:101D40004FF48071FFF7FEFC4FF08040002101F05E
:101D500095F820468021FFF7F3FC4FF080400021EA
:101D600001F08EF820462021FFF7EAFC4FF080407A
:101D70004FF4FA7101F086F820464021BDE810408A
:101D8000FFF7E0BC40F60044C4F2010420461021F5
:101D9000FFF7D6FC20464FF40071BDE81040FFF776
:101DA000CFBC000010B582B04FF4FA70482100F0AB
:101DB0002DF80820012100F03FFA40F2E01040F633
:101DC0000044C1F20300C4F20104009069462046B9
:101DD000FFF718FC0820012100F02EFA40F2002045
:101DE000C0F230000121FFF76BFC40F21020C1F27D
:101DF0000300019001A92046FFF704FC20464FF4A0
:101E00000471FFF79DFC02B010BD0000B0B588B0B2
:101E10000C4605460420012100F00EFA01200121A4
:101E200000F0F2F90F20C1F60300079040F6000021
:101E3000C4F2010007A9FFF7E5FB681EADF8160024
:101E4000601EADF8120000240DF112014FF0804029
:101E5000ADF81840ADF814408DF81A4001F018F8AC
:101E60004FF08040012100F0D9FD6020C0F2010058
:101E7000ADF80A400DF10204CDF802004FF08040A9
:101E8000214600F003FF4FF08040214600F03CFF68
:101E90004FF08040214600F079FF4FF0804021460E
:101EA00000F0B4FF4FF08040082100F027FF4FF012
:101EB0008040082100F062FF4FF08040082100F0D0
:101EC0009FFF4FF08040082100F0CEFF08B0B0BD6A
:101ED0007047000070B582B06FF05A008DF80400B2
:101EE0004FF0A53048F2B81400901020C4F221241D
:101EF00000F096FC00263020266000F067FC6D465E
:101F0000A85D013600F062FC052EF9D101202060A9
:101F100000261020266000F059FC00BFFF2000F0D2
:101F200055FCA8550136052EF8D10120206000206F
:101F3000295CA52904D101300528F9D1052000E04C
:101F4000C0B2053818BF012002B070BD10B5FFF750
:101F5000C1FF78B10BA400BF2046FEF75DF90A204F
:101F6000FEF768FA4FF47A7001F0BCFCFFF7B2FF9D
:101F70000028F1D109A0FEF74FF90A20BDE8104072
:101F8000FEF758BA4E524632344C30315F436865E2
:101F9000636B206661696C65642021004E52463295
:101FA000344C30315F436865636B207375636365E0
:101FB000656420210000000070B586B00820012172
:101FC000012600F039F941F2000040F60044C1F268
:101FD0000300C4F2010405AD059020462946FFF731
:101FE00011FB20464FF48051FFF7ACFB4FF4C0408B
:101FF000ADF8140020462946FFF704FB20464FF4B5
:10200000C041FFF79DFB4FF40040ADF814002820BD
:102010008DF8170020462946FFF7F4FA20464FF4C2
:102020000041FFF78DFB00F095FB04F510542046AE
:102030000021002500F004FC4FF08270CDF8020072
:102040004FF00070CDF80A001820CDF80E000720E0
:10205000ADF812000DF102012046CDF8065000F057
:1020600003FC2046012100F0EBFB48F2B410C4F25F
:1020700021200560466006B070BD000070B548F2D2
:10208000B814C4F22124002044F8040C20602A2053
:1020900000F09CFB46F26830C0F60000451E0526A5
:1020A00015F8010F00F092FB013EF9D10125002641
:1020B00021202560266000F089FB012000F086FBCE
:1020C00022202560266000F081FB012000F07EFBCD
:1020D00025202560266000F079FB282000F076FBA3
:1020E00031202560266000F071FB202000F06EFB9F
:1020F00026202560266000F069FB0F2000F066FBBB
:1021000020202560266000F061FB0F2000F05EFBC0
:10211000256044F8045C70BD2DE9F041804648F22A
:10212000B8171020C4F2212700F07AFB0024072002
:102130003C6000F04BFBFF2000F048FB0646012509
:1021400027203D603C6000F041FB304600F03EFB44
:1021500070063D6018D561203C6000F037FBA8F1A7
:1021600001042025FF2000F031FB013D04F8010FA0
:10217000F8D101240025E2203C603D6000F026FB00
:10218000FF2000F023FB3C602846BDE8F081000002
:1021900010B5C17800294EF20011CEF200011AD01C
:1021A0004EF60C52CEF200021268072323EA1222E6
:1021B0000F23C2F1040C23FA02F24378847890F8DA
:1021C00000E003FA0CF322401A43120101EB0E0364
:1021D00083F8002300E080310078012300F01F0223
:1021E00003FA02F2C0F3421041F8202010BD0000B3
:1021F00040F080604EF60C5140F0FD70CEF20001D0
:102200000860704770470000002941F21C01C4F2C9
:1022100002010A680CBF22EA000010430860704700
:10222000002941F21001C4F202010A680CBF22EA3F
:102230000000104308607047002941F21801C4F201
:1022400002010A680CBF22EA0000104308607047D0
:10225000002941F20C01C4F202010A680CBF22EA13
:10226000000010430860704710B541F20404C4F246
:102270000204226802F00C02082A41F20022C0F295
:102280007A0212D12368D4F800C0C3F3834E5FEA08
:10229000CC330EF1020C02D523689B0303D540F624
:1022A0000012C0F23D020CFB02F20260226846F20C
:1022B0005833C2F30312C0F600039A5C0168D140A0
:1022C00041602268C2F302229A5C21FA02F2826023
:1022D0002268C2F3C2229A5C46F25433D140C160F4
:1022E0002268C0F60003C2F381329A5CB1FBF2F1BE
:1022F000016110BD0138072888BF704710B5DFE8BD
:1023000000F004532333136373430024FF2000F0D1
:10231000A3F8002000F0A0F8002000F09DF8052CA4
:1023200004F10104F2D36EE0002400BF002000F0AD
:1023300093F8FF2000F090F8FF2000F08DF8052CB6
:1023400004F10104F2D35EE0002400BFFF2000F09E
:1023500083F8FF2000F080F8002000F07DF8052CC5
:1023600004F10104F2D34EE0002400BF002000F08D
:1023700073F8FF2000F070F8002000F06DF8052CD5
:1023800004F10104F2D33EE0002400BFFF2000F07E
:1023900063F8002000F060F8FF2000F05DF8052CE5
:1023A00004F10104F2D32EE0002400BFFF2000F06E
:1023B00053F8A52000F050F8002000F04DF8052C4F
:1023C00004F10104F2D31EE0002400BF002000F05D
:1023D00043F8002000F040F8FF2000F03DF8052C05
:1023E00004F10104F2D30EE0002400BFFF2000F04E
:1023F00033F8C02000F030F8CB2000F02DF8052C89
:1024000004F10104F2D3BDE81040704710B582B06A
:1024100008200121FFF710FF012040F60044C1F21F
:102420000300C4F20104019001A92046FFF7EAF875
:1024300020460121FFF786F902B010BDB0B5144661
:102440000D4600F009F8284600F006F82046BDE8E1
:10245000B04000F001B80000F0B581B040F6004592
:1024600004460026C4F2010529E000BF28460121E8
:10247000FFF766F900BF00BF00BF00BF00BF00BF8D
:1024800000BF00BF00BF00BF00BF00BF00BF00BF54
:1024900000BF00BF00BF00BF00BF00BF00BF00BF44
:1024A00000BF00BF00BF00BF00BF00BF00BF00BF34
:1024B00000BF00BF6400072E06F101062FD2284698
:1024C000012167B2FFF73EF9B7F1FF3F00BF00BF40
:1024D00000BF00BF00BF00BF3FF7C8AF28460121C3
:1024E00000BF00BF00BF00BF00BF00BF00BF00BFF4
:1024F00000BF00BF00BF00BF00BF00BF00BF00BFE4
:10250000FFF71EF900BF00BF00BF00BF00BF00BF44
:1025100000BF00BF00BF00BF00BF00BFCAE701B0DF
:10252000F0BD0000B0B50620FFF7F0FBFFF7A6FDF9
:1025300040F2F804C2F200042046FFF7EDFD40F23D
:102540000115C2F20005C0B92178202915D0A07864
:1025500053290DD1617854290AD14F2808D1E17847
:10256000502905D140F20011C2F2000101220A7087
:102570003038C1B2022998BF28700A2001F0B2F9A0
:10258000297802A0BDE8B040FDF746BE5247425F41
:102590006D6F64653D25640A000000002DE9F04F71
:1025A00083B040F20110C2F200000078022877D018
:1025B000012828D000281CBF03B0BDE8F08F40F2EE
:1025C000A405C2F2000540F2F404286840F2EC08C9
:1025D00040F2F009C2F20004C2F20008C2F200099F
:1025E000642164222346CDE9009801F0F9F92868B6
:1025F00040F2A801B0F5B47FC2F2000178D0002803
:1026000078D1002275E040F2FE08C2F2000898F886
:1026100000004AF6AB21CAF6AA214843B0F1553F63
:1026200060D840F2BD0940F2FC0740F2EC0A40F2EB
:10263000F00B40F2F404C2F200090020C2F20007DD
:10264000C2F2000AC2F2000BC2F2000489F80000D4
:102650003878642164222346CDE900BA01F0C0F93C
:10266000206803F071FBDBF800100546084603F014
:102670006BFBDAF800100646084603F065FB0246DD
:1026800028463146FFF7DAFE387899F800103C30DA
:102690003870481CC1B2062989F80000D8D321E05F
:1026A00040F2FD04C2F200042078FFF723FE40F25E
:1026B000FF00C2F2000000784AF6AB21CAF6AA2158
:1026C0004843B0F1553F02D820780130207020787F
:1026D00040F2FF08C2F20008092822BF002088F853
:1026E0000000207098F80000013088F800002BE00E
:1026F00001220A70097821B1012905D16FF0090181
:1027000000E00A210844286040F2BD07C2F2000739
:1027100000203870206803F017FBD9F80010054638
:10272000084603F011FBD8F800100646084603F0EF
:102730000BFB024628463146FFF780FE3878013011
:10274000C1B206293870E5D3642003B0BDE8F04F6C
:1027500001F0C8B810B586B004200121FFF76CFD68
:102760004FF480500121FFF767FDE02040F60004A0
:10277000C1F60300C4F20104059005A92046FEF746
:1027800041FF2046E021FEF7DDFF4FF08270CDF8DB
:1027900002004FF40030CDF806000120C0F2002006
:1027A000CDF80A003820CDF80E00072004F520549B
:1027B000ADF812000DF10201204600F055F8204658
:1027C000012100F03DF806B010BD000070B543F2E5
:1027D000000405460026C4F2010400BF2046022181
:1027E00000F038F820B9C72E06F10106F6D90EE040
:1027F0002046294600F036F8002500BF204601217A
:1028000000F028F830B9C72D05F10105F6D90020F0
:10281000C0B270BD204600F023F8C0B270BD000009
:1028200043F20002C4F20102118821F03801118044
:10283000118841EA0003104601211380AFF30080A4
:102840000288002918BF012122F0400242EA8111CA
:10285000018070470089084018BF012070470000C0
:1028600080897047818170472DE9F04102880B888B
:1028700002F4415C4A88B1F804E043EA0C03CC88D6
:102880001A430D8942EA0E024E8922438F892A4358
:10289000B1F80E8032433A4342EA08020280828B4A
:1028A00022F400628283098A0182BDE8F08100007F
:1028B000704700004EF21001CEF200010A680428B1
:1028C00022F0040208BF04320A607047704700001B
:1028D00082B041F20400C4F2020050F8041C00224D
:1028E00041F0010140F8041C0168CFF6FF021140DD
:1028F000016050F8041C4FF6FF72CFF6F6621140EB
:1029000040F8041C50F8041C21F4802140F8041CF9
:10291000016821F4FE0101604FF41F0141600021B4
:102920000191009150F8041C41F4803140F8041CDE
:1029300050F8041C01F4003100910199013101911A
:10294000009919B90199B1F5A06FF1D150F8041CA3
:10295000C1F3404100910099012936D142F20001B2
:10296000C4F202010A6842F010020A600A6822F00A
:1029700003020A600A6842F002020A60016801600C
:1029800001680160016841F480610160016821F41F
:102990007C110160016841F4E811016050F8041CE9
:1029A00041F0807140F8041C50F8041C8901FBD5EB
:1029B000016821F003010160016841F0020101603A
:1029C000016801F00C010829FAD14EF60850CEF248
:1029D00000004FF00061016002B0704710B540F692
:1029E0000004C4F200042046012100F03BF9002855
:1029F00008BF10BD2046012100F00CF840F2A210E3
:102A0000C2F2000001880131018010BDC94301827A
:102A100070470000C9430182704700000288002906
:102A200018BF012122F0010211440180704700000B
:102A300080B541F6FF71C4F20001884229DD44F2FD
:102A4000FF31C4F20101884240DD44F6FF31C4F297
:102A50000101884240F3A78044F60041C4F201011D
:102A6000884200F0E88045F20001C4F2010188428A
:102A700000F0BD8045F20041C4F20101884218BF58
:102A800080BD4FF400100121FFF7E2FB4FF400106E
:102A9000E0E040F6FF71C4F20001884231DC40F210
:102AA000FF71C4F20001884259DCB0F1804F00F0A0
:102AB000A68040F20041C4F20001884240F0CF807D
:102AC00002200121FFF7ACFB0220AFE043F2FF310F
:102AD000C4F2010188422DDC42F20001C4F200017F
:102AE000884274D042F60041C4F20101884240F0AD
:102AF000B6804FF400600121FFF7AAFB4FF400609D
:102B0000A8E041F2FF71C4F20001884239DC41F2D1
:102B10000001C4F20001884277D041F20041C4F2C2
:102B20000001884240F09B8020200121FFF778FBC4
:102B300020207BE043F20041C4F2010188424ED0E4
:102B400044F20001C4F20101884240F088804FF451
:102B500080300121FFF77CFB4FF480307AE040F6B3
:102B60000001C4F20001884255D040F60041C4F291
:102B70000001884273D108200121FFF751FB082092
:102B800054E041F60001C4F20001884249D041F608
:102B90000041C4F20001884261D180200121FFF789
:102BA0003FFB802042E044F20041C4F20101884230
:102BB00049D044F60001C4F2010188424FD14FF4DC
:102BC00080200121FFF744FB4FF4802042E04FF4C6
:102BD00080700121FFF724FB4FF4807026E04FF452
:102BE00000500121FFF734FB4FF4005032E04FF466
:102BF00080100121FFF72CFB4FF480102AE0012008
:102C00000121FFF70DFB012010E010200121FFF74B
:102C100007FB10200AE004200121FFF701FB04203C
:102C200004E040200121FFF7FBFA40200021BDE82D
:102C30008040FFF7F5BA4FF400200121FFF708FBB1
:102C40004FF4002006E04FF400300121FFF700FBB5
:102C50004FF400300021BDE88040FFF7F9BA80BD95
:102C6000808C7047028A80890A4000EA010018BF00
:102C70000122002818BF012010407047002A8289D5
:102C80000CBF22EA0101114381817047B0B5028C6B
:102C900022F001020284038C8288B0F818C00C89EB
:102CA00023F002032343A0F180444D88A4F5963419
:102CB000B1F800E04FEAB424072C43EA050313D827
:102CC000012505FA04F414F0E50F0DD04C8923F02A
:102CD0000C0324F004048D8823438C892B4322F4B5
:102CE0004072CD8922432A432CF0730545EA0E0534
:102CF00082800583C98881860384B0BD028B22F05F
:102D00000802114301837047B0B5028C22F0100213
:102D10000284038C8288B0F818E00C894D88B1F8E1
:102D200000C02C4343F2004523F02003C4F2010508
:102D3000A84243EA041305D042F60044C4F2010459
:102D4000A04211D14C896FF0400523F0C00305EA81
:102D500004148D88234343EA05138C89CD8922F41A
:102D600040622C4342EA84022EF4E64545EA0C25F3
:102D700082800583C98801870384B0BD028B22F459
:102D8000006242EA0121018370470000B0B5028C65
:102D900022F480720284038C8288B0F81CE00C89D3
:102DA0004D88B1F800C02C4343F2004523F4007372
:102DB000C4F20105A84243EA042305D042F60044C8
:102DC000C4F20104A04211D14C8940F2FF45240213
:102DD00023F44063AC438D88234343EA05238C8965
:102DE000CD8922F440522C4342EA04122EF073059E
:102DF00045EA0C0582808583C98881870384B0BD3C
:102E0000828B22F0080211438183704770B5028CD7
:102E100043F2004622F480520284038C8288B0F888
:102E20001CE0B1F800C00C894D88C4F20106B04224
:102E300005D042F60046C4F20106B04204D18E89A4
:102E400022F4804242EA86122EF4E64646EA0C2636
:102E50008280868323F400532C43C98843EA0432DA
:102E6000A0F84010028470BD828B22F4006242EA16
:102E70000121818370470000818670470187704778
:102E800081877047A0F84010704700008184704728
:102E900040F6FF33B0F800C0C4F2000398420FDCE4
:102EA000B0F1804F1ED040F20043C4F200039842BC
:102EB00018D040F60003C4F20003984212D016E086
:102EC00040F60043C4F2000398420BD043F20043A3
:102ED000C4F20103984205D042F60043C4F2010354
:102EE000984204D14B882CF0700243EA020C41F264
:102EF000004240F48063C4F20002934204D0CA88C6
:102F00002CF4407342EA030CA0F800C08A88828542
:102F1000A0F18042A2F596320B884FEAB222072A2E
:102F2000038507D8012303FA02F212F0E50F1CBF54
:102F3000097A018601218182704700002DE9F0475E
:102F400043F60004C4F20104204640F2255100F08B
:102F50009BF9002800F0F280204600F023FAA0F14F
:102F60006101C9B2062940F2A011C2F200019CBF62
:102F7000A0F160020A7040F21612C2F20002137849
:102F800033B90B78042B03D100230B70012313708A
:102F90000978C4B202294FF6FA7547D140F20F11F1
:102FA000412CC2F2000114D101220A7040F2D80271
:102FB000C2F200020023C2E90033C2E90233136106
:102FC00040F23012C2F20002C2E90033C2E9023319
:102FD0001361A4F1670292B2AA4280F0AF8009782F
:102FE000002900F0AB8040F21311C2F200010A7810
:102FF00040F23013C2F200039854501C2A2C08707F
:1030000018BFBDE8F08740F2D80040F23011C2F29C
:103010000000C2F20001FDF729FA40F2131040F25D
:103020000F11C2F20000C2F2000184E040F20E165D
:103030004C2CC2F2000604BF01213170A4F16701DB
:103040008FB240F21018AF42C2F2000836D2317887
:10305000A1B340F21119C2F2000999F8002040F220
:103060001811C2F2000188540132522C89F8002054
:1030700026D02A2C27D1824640F21410C2F200003A
:10308000027862B940F2C0020023C2F20002C1E934
:1030900000330B8101211381C2E90033017040F23A
:1030A000C00040F21811C2F20000C2F20001FDF7A8
:1030B000DDF90020307089F800005046522C02D112
:1030C000012188F80010AF4238D298F80010A9B357
:1030D00040F21212C2F20002137840F22411C2F23E
:1030E0000001C854581C2A2C107027D140F215102A
:1030F000C2F20000027862B940F204120023C2F268
:103100000002C1E900330B8101211381C2E90033C0
:10311000017040F2041040F22411C2F20000C2F229
:103120000001FDF7A3F940F2121040F21011C2F2B3
:103130000000C2F2000100220A700270BDE8F087B0
:10314000F0B587B0054644F204000121FFF774F89A
:1031500001200121FFF770F843F6000440F200203F
:10316000C4F20104C1F60300A4F5405606AF069070
:1031700030463946FEF746FA4FF48060ADF8180045
:1031800004208DF81B0030463946FEF73BFA40F22A
:103190002530C0F20310019001A8FEF7F9FF0020CE
:1031A0004FF4402103900491ADF8140002A9204689
:1031B000029500F09BF8204640F22551012200F0D4
:1031C0007DF82046012100F04FF807B0F0BD000067
:1031D00010B544F20044C4F20004204640F22551E8
:1031E00000F052F848B1204600F0DCF8C1B2612985
:1031F00004D0622908D1022101E005E0012140F25A
:103200009F12C2F200021170C0B2A080204680213D
:1032100000F034F80028F9D010BD000010B544F6D5
:103220000004C4F20004204640F2255100F02CF8BE
:1032300048B1204600F0B6F8C1B2612904D0622935
:1032400008D1022101E005E0012140F29F12C2F203
:1032500000021170C0B2A0802046802100F00EF85C
:103260000028F9D010BD00008289002918BF012173
:1032700022F4005242EA41318181704700880840BF
:1032800018BF012070470000C1F342121423022A24
:1032900008BF1023012A08BF0C2301F01F02C35AE4
:1032A000090A4FF0010C00880CFA01F1084023FADA
:1032B00002F118BF0120084070470000C1F342131B
:1032C00001F01F0C1421022B08BF1021012B4FF01D
:1032D000010308BF0C21002A03FA0CF243580CBF6B
:1032E00023EA02021A4342507047000070B586B0CC
:1032F0000446008A0D46C98820F4405008432082C5
:10330000A0894EF6F3110840A9882A896B890843E1
:1033100010431843A081A08AA98920F44070084373
:1033200001AEA0823046FEF79FFF43F6000106F192
:103330000800C4F201018C4208BF06F10C000068CD
:103340001922B4F90C1050432A680123B1F1FF3F50
:10335000C8BF022302FA03F1B0FBF1F048F21F519B
:10336000C5F2EB11A0FB01235A096FF0630302FBC6
:103370000300B4F90C300326B3F1FF3FC8BF0426A5
:1033800000FA06F000F13200A0FB01014FF0070047
:10339000C8BF0F2000EA511040EA0210208106B099
:1033A00070BD000080886FF35F2070476FF35F216E
:1033B00081807047FEE700002DE9F04F83B040F6B2
:1033C0000048C4F20108FEF759FE40461021FEF7FE
:1033D000B9F940464FF40071FEF7B4F940F2A9097B
:1033E000C2F200094846FEF797FE30B146F26D3052
:1033F000C0F60000FDF724F83CE199F8020099F8C6
:10340000031000EB800001EB4000C0EBC0114EF652
:103410003420CFF6FD7046F2676200EB4101C6F240
:10342000666281FB023199F8053099F8067003EB6A
:10343000830307EB4303C3EBC31300EB430383FB9B
:10344000023799F8093099F80A6003EB830306EB19
:103450004303C3EBC31300EB430383FB023699F82A
:103460000C3099F80D4003EB830304EB4303C3EBEB
:10347000C31300EB430080FB0202481100EBD17143
:10348000781100EBD770571107EBD2727311024419
:1034900003EBD6735718F81840F27B26361A40F221
:1034A000E63040F2094B891A06FB00F4C8F2021B11
:1034B0007F3184FB0B4CCA1802FB00F484FB0B4EDB
:1034C0007F3BDC1B4CF64E57C0F205074EF61A7ACE
:1034D00004FB0074C0F2010AC91A01FB00A15444A4
:1034E00006FB00C384FB0B7581FB0B7602FB00E23D
:1034F000DF1107EBD373D71107EBD2722F19FD1130
:103500003144834205EBD7774FEAE116A3F5F07C0F
:10351000A8BF0346824206EBD171A2F5F07EA8BF98
:1035200002468742A7F5F075A8BF0746A1F5F076D9
:103530008142B8BF084623EAE371A1F2F31122EAFF
:10354000E272BCF1270FA2F2F31427EAE77238BF48
:103550000021BEF1270FA2F2F31720EAE07038BF76
:103560000024272DA0F2F31A38BF0027272E38BFDA
:103570004FF0000A002931D4C1F5FA7081B24FF042
:103580008040FFF77FFC40464021FEF7DBF8002C2F
:1035900030D4A1B24FF08040FFF772FC40462021AA
:1035A000FEF7CEF8002F32D4C7F5FA7081B24FF093
:1035B0008040FFF761FC40464FF48071FEF7C2F88F
:1035C000BAF1000F31D41FFA8AF14FF08040FFF7B3
:1035D00055FC40468021FEF7B3F831E0484281B205
:1035E0004FF08040FFF74EFC40464021FEF7A8F820
:1035F000002CCED504F5FA7081B24FF08040FFF771
:103600003FFC40462021FEF79DF8002FCCD57842A4
:1036100081B24FF08040FFF72FFC40464FF480719D
:10362000FEF78EF8BAF1000FCDD50AF5FA7081B227
:103630004FF08040FFF722FC40468021FEF782F8E1
:1036400099F800004C280CD199F80300522808D1B1
:103650000620FEF75BFB40F2D500C2F2000001211C
:10366000017040F2A900C2F20000FCF7D5FD0A206B
:10367000FCF7E0FE40F20110C2F2000000780228E0
:103680007CD0012828D0002840F0D28040F2A40548
:10369000C2F2000540F2F404286840F2EC0840F25F
:1036A000F009C2F20004C2F20008C2F2000964216B
:1036B00064222346CDE9009800F092F9286840F290
:1036C000A801B0F5B47FC2F2000100F084800028A8
:1036D00040F0838000227FE040F24618C2F20008EA
:1036E00098F800004CF6CD41CCF6CC4148434CF65E
:1036F000CC414FEAB000C0F6CC41884265D840F2D8
:10370000BD0940F2441740F2EC0A40F2F00B40F2DF
:10371000F404C2F200090020C2F20007C2F2000A5B
:10372000C2F2000BC2F2000489F80000387864216C
:1037300064222346CDE900BA00F052F9206802F075
:1037400003FBDBF800100546084602F0FDFADAF844
:1037500000100646084602F0F7FA024628463146AF
:10376000FEF76CFE387899F800103C303870481C31
:10377000C1B2062989F80000D8D326E040F24514EA
:10378000C2F200042078FEF7B5FD40F24710C2F205
:10379000000000784CF6CD41CCF6CC4148434CF6C5
:1037A000CC414FEAB000C0F6CC41884202D8207824
:1037B00001302070207840F24718C2F20008092832
:1037C00022BF002088F80000207098F80000013027
:1037D00088F800002CE001220A70097821B1012943
:1037E00005D16FF0010100E002210844286040F299
:1037F000BD07C2F200070020387000BF206802F049
:10380000A3FAD9F800100546084602F09DFAD8F848
:1038100000100646084602F097FA0246284631464E
:10382000FEF70CFE38780130C1B206293870E5D3B6
:103830000A2003B0BDE8F04F00F054B87047000014
:1038400070B504464FF080402146FFF715FB40F667
:103850000045C4F2010528464FF48071FDF770FF62
:10386000C4F5FA7086B24FF080403146FFF706FB90
:1038700028468021FDF766FF4FF080403146FFF774
:10388000FFFA28462021FDF75DFF4FF080402146DA
:10389000FFF7F8FA28464021BDE87040FDF750BF19
:1038A00080B56FF00400FFF705F840F20000C2F2A7
:1038B000000000684DF68361C4F21B31A0FB0101DA
:1038C00040F29E12480DC2F200021070C1F3475040
:1038D0004FF47A71484340F29C11C2F20001088013
:1038E00080BD000040F29C11C2F200010A884EF235
:1038F0001001CEF200015043486000208860086843
:1039000040F00100086000BF086800F001100128C5
:10391000FAD0086820F00100086000208860704735
:1039200040F29E11C2F200010A784EF21001CEF26E
:1039300000015043486000208860086840F00100A2
:10394000086000BF086800F001100128FAD008687C
:1039500020F00100086000208860704770B50646BE
:10396000C0F5FA7084B24FF080402146FFF784FA28
:1039700040F60045C4F2010528464FF48071FDF77A
:10398000E1FE4FF080403146FFF778FA284680216B
:10399000FDF7D6FE4FF080403146FFF771FA28461A
:1039A0002021FDF7CDFE4FF080402146FFF76AFA57
:1039B00028464021BDE87040FDF7C4BEB0B543F6CF
:1039C0000005C4F201050446C1B22846FFF7EEFC2B
:1039D00028468021FFF752FC0028F9D02046B0BDD0
:1039E0002DE9F04F81B0DDE90A98074608469B466D
:1039F000154602F0C5F90024C4F2C824214602F09D
:103A0000ADF80646284602F0BBF9214602F0A6F8BA
:103A100005463046002102F06BF800B3C8F80050AC
:103A2000C9F80050CBF800500024DBF80000C4F2C5
:103A30007F34214602F038FACBF80000D9F80000B4
:103A4000214602F031FAC9F80000D8F800002146FA
:103A500002F02AFAC8F8000001B0BDE8F08F38463D
:103A600002F08EF90021C4F2702102F077F80446CA
:103A700002F06AF9824602F083F90146204602F01C
:103A8000DFFA07464FF07E50314602F0D9FA014680
:103A9000284602F009FA00903046394602F004FA4E
:103AA00001464FF07E5002F0CBFA0146284602F064
:103AB000FBF9044638464FF07E5102F0C1FA014648
:103AC000304602F0F1F94FF07E5101F0AFFF0146B0
:103AD000284602F0E9F9BAF1050FA5D8DFE80AF0A7
:103AE000032010180828CBF80050C9F800001BE08C
:103AF000CBF800000098C9F80000C8F8005093E720
:103B00000099CBF80010C9F80050C8F800008BE706
:103B10000098CBF80000C9F80040C8F8005083E7CF
:103B2000CBF80040C9F800500098C8F800007BE7C7
:103B30000098CBF80050C9F80000C8F8004073E7BF
:103B4000FFF7AEFE4FF4A060FEF752FBFEF798F8C9
:103B50004FF41650FFF7F4FAFEF72EFAFEF7F6F9D7
:103B6000FEF720F9FEF72EF80720FEF7CFF8FEF754
:103B70004DFC4FF47A70FFF7B5FE40F2B410C4F27A
:103B800022200021016000BFFDF742FCFCE75FEA54
:103B9000400C08BF91F0000F4FEA8C234FEAC1227E
:103BA00043EA51514FEA1C5018BF00F5F0404FEA6C
:103BB000300018BF41F000415FEA6C5C00F02980E2
:103BC000BCF1FF3F08BF40F080407047130C06BFB8
:103BD00012044FF0100C4FF0000C130E04BF120231
:103BE0000CF1080C130F04BF12010CF1040C930F1D
:103BF00004BF92000CF1020CD30F04BF52000CF171
:103C0000010C11464FF00002A0F11F00A0EB0C00C8
:103C1000704711F0004F08BF704731F000413FF48A
:103C2000D5AF0B0C06BF09044FF0100C4FF0000C81
:103C30000B0E04BF09020CF1080C0B0F04BF0901A5
:103C40000CF1040C8B0F04BF89000CF1020CCB0F9C
:103C500004BF49000CF1010CCCF1200322FA03F35C
:103C600041EA030102FA0CF2A0EB0C0000F10100A2
:103C70007047000023F07F4720F07F4C80EA03006C
:103C800000F00040ACEB070303F57C5303F1FF03A6
:103C90002DE9804909B44FEA144324EA03484FEA66
:103CA000154B25EA0B4E0FF2042606EB13273E7840
:103CB00003FB0667C7F5000707FB06F64FEAD64683
:103CC00006F102064FEA543707FB066CCCF1005CA4
:103CD0004FEA1C472CEA074C0CFB06F507FB06F4E1
:103CE00004EB15464FEA961649085FEA320234BFE4
:103CF00000204FF000404FEAD13706FB07FC4FEAA7
:103D00001C4C0CFB0BF7D21B03FB0CF761EB070100
:103D10000CFB0EF7B0EB074072EB17420CFB08F7F9
:103D200034BFA2EB0742B2EB074261EB17414FEA07
:103D30000C444FEA910706FB07FC4FEA1C4C0CFBB6
:103D40000BF7B0EBC74072EB573203FB0CF734BFF5
:103D5000A2EBC742B2EBC74261EB57310CFB0EF747
:103D6000B0EBC70072EB57720CFB08F734BFA2EB45
:103D7000C702B2EBC70261EB57714FEA816141EABA
:103D800092114FEA826242EA90124FEA806004EB9D
:103D9000CC04039F4FEAD13706FB07FC4FEA1C4CCB
:103DA0000CFB0BF7D21B03FB0CF761EB07010CFBC1
:103DB0000EF7B0EB074072EB17420CFB08F734BF6D
:103DC000A2EB0742B2EB074261EB17414FEA8C5579
:103DD00004EB9C244FEA910706FB07FC4FEA1C4CBE
:103DE0000CFB0BF7B0EBC74072EB573203FB0CF741
:103DF00034BFA2EBC742B2EBC74261EB57310CFBB9
:103E00000EF7B0EBC70072EB57720CFB08F734BF2C
:103E1000A2EBC702B2EBC70261EB57714FEA8161B7
:103E200041EA92114FEA826242EA90124FEA8060C0
:103E300015EB4C2544F100044FEAD13706FB07FC93
:103E40004FEA1C4C0CFB0BF7D21B03FB0CF761EB8E
:103E500007010CFB0EF7B0EB074072EB17420CFBAF
:103E600008F734BFA2EB0742B2EB074261EB174100
:103E70004FEA813141EA92414FEA823242EA90426E
:103E80004FEA80304FEA0C7615EB1C1544F1000424
:103E900048EA03434EEA0B484FF0000EB2EB080C21
:103EA00071EB030724BF624639464EEB0E0E4FF00E
:103EB000000B0018524149414BEB0B0BB2EB080CC5
:103EC00071EB03077BF1000B24BF624639464EEBD2
:103ED0000E0E4FF0000B0018524149414BEB0B0BFB
:103EE000B2EB080C71EB03077BF1000B24BF6246B9
:103EF00039464EEB0E0E51EA020718BF46F0010696
:103F000016EB0E7655F1000254F1000103D5BDE821
:103F10008901BDE80088BDE88901BDE80048B619FF
:103F2000524141EB0101A3F10103704780807F7E84
:103F30007D7C7B7A7978777676757473727171701F
:103F40006F6E6E6D6C6C6B6A6A69686867666665D1
:103F50006464636362616160605F5F5E5E5D5D5C5F
:103F60005C5B5B5A5A5959585857575656555555D0
:103F70005454535352525251515050504F4F4F4E30
:103F80004E4D4D4D4C4C4C4B4B4B4A4A4A4949497E
:103F900048484847474747464646454545444444C0
:103FA0004443434343424242424141419C46002BE9
:103FB00030D477002BD04FEA37071CB503B44FF04D
:103FC00010004FF01001BAF1000F06D0BCF1000F45
:103FD000DCBF40F0080040F008014FF000000FBCCB
:103FE000BDE810400BF1010BBBF1010F08BF5FEA08
:103FF000170722BF12F1010211F101014FF0004138
:1040000043F1000300F0004043EA00007047F9D399
:104010005708D0E746EA06464FEA164613F1400F26
:104020001FDD13F1200FDFBF16430A4600212033A6
:104030005B42BED0C3F1200746EA06464FEA164669
:1040400002FA07F746EA070622FA03F2C3F120074D
:1040500001FA07F742EA070221FA03F14FF00003E1
:10406000A7E746EA020646EA06464FEA164646EA49
:104070000106BCBF46EA0646360C4FF000034FF07F
:1040800000024FF0000194E72DE9804C70B49A468D
:10409000934691E8380007C831EA400C48BF34EA3B
:1040A000430C03D5FFF7E6FDFFF780FFF0BCBDE84A
:1040B000008C2DE9804C70B49A46934691E8380004
:1040C00007C810F0804F08BF13F0804F03D100F0F5
:1040D00005F8FFF76BFFF0BCBDE8008C20F07F47D0
:1040E00023F07F4C80EA030000F0004007EB0C0354
:1040F000A3F57C53A3F1FE0392F0000F00F0B38010
:1041000095F0000F00F077802DE901494FEA11404A
:1041100021EA00484FEA144624EA064700FB06FC61
:1041200008FB06F607FB08F818EB06484CEB164CA4
:1041300000FB07F718EB07484CEB17404FEA124B10
:1041400022EA0B4E4FEA154625EA06470BFB06FC12
:104150000EFB06F607FB0EFE1EEB064E4CEB164C56
:104160000BFB07F71EEB074E4CEB174B18EB0B083E
:1041700040F1000018EB0E0B58EB000840F1000076
:104180008F1A4FF000014FF000063CBFC943661B79
:1041900014BFB5EB040C00213CBFC943F61B4FEA2A
:1041A000174427EA04454FEA1C472CEA074C04FB56
:1041B000076205FB07F70CFB05F616EB074642EB1B
:1041C000174204FB0CFC16EB0C4642EB1C421BEBAB
:1041D000060658EB020241414EEA8E0E46EA9E0662
:1041E00001D5BDE80189B619524141EB0101A3F1A6
:1041F0000103BDE801894FEA144524EA05464FEA68
:10420000114721EA074C05FB07F406FB07F70CFBF7
:1042100006F111EB074144EB174405FB0CFC11EBD5
:104220000C4144EB1C444FEA124722EA074C05FBC1
:1042300007F206FB07F70CFB06F616EB074642EB08
:10424000174205FB0CFC16EB0C4642EB1C456A18AA
:1042500054F1000148BF7047B619524141EB0101CA
:10426000A3F10103704795F0000F37D04FEA1142D8
:1042700021EA02464FEA144724EA074C02FB07F101
:1042800006FB07F70CFB06F414EB074441EB174160
:1042900002FB0CFC14EB0C4441EB1C414FEA1547AC
:1042A00025EA074C02FB07F506FB07F70CFB06F6B1
:1042B00016EB074645EB174502FB0CFC16EB0C46CC
:1042C00045EB1C42121951F1000148BF7047B61965
:1042D000524141EB0101A3F1010370474FEA14453C
:1042E00024EA05464FEA114721EA074C05FB07F18E
:1042F00006FB07F70CFB06F212EB074241EB1741F6
:1043000005FB0CFC12EB0C4251EB1C414FF000067C
:1043100048BF7047921841EB0101A3F101037047B8
:10432000490050EAC12018BF04204A0D18BF40F0D0
:10433000010040F2FF72B2EB515F08BF40F0020093
:10434000012808BF052070472DE9F0414F1E00EB02
:10435000C7010446D1E9000115461E4637F00602A2
:104360000DD02A46334601F04DF87F1E04EBC703FB
:10437000D3E9002300F098FD37F00602F1D1022FB7
:1043800025D0042F13D0062F18BFBDE8F0812A4690
:10439000334601F037F8D4E90A2300F085FD2A46B8
:1043A000334601F02FF8D4E9082300F07DFD2A46BA
:1043B000334601F027F8D4E9062300F075FD2A46BC
:1043C000334601F01FF8D4E9042300F06DFD2A46BE
:1043D000334601F017F8D4E9022300F065FD2A46C0
:1043E000334601F00FF8D4E90023BDE8F04100F0B6
:1043F0005BBD0000002213461046014900F010BECC
:104400000000F03F00F050BD002213461046114658
:1044100000F006BE40F2013200204FF0E04101F012
:10442000B8BE0000024A0020110701F0B2BE000031
:1044300001FDFFFF30380A2801D20120704700201B
:10444000704700002DE9F04D1D460C4694B017460C
:1044500021F0004123F00043002814BF4FF0010C6D
:104460004FF0000C0CEB440CFB4A0CEB02064FEA3D
:10447000620C66452BD33E0018BF012606EB4506AD
:104480001644F64A964222D3F54A53EA070C02D064
:10449000944205D148B914B000201146BDE8F08D12
:1044A000002808BF4FF0000C01D04FF0010C0CEBBE
:1044B000440212F5001F0AD8002F14BF4FF0010C60
:1044C0004FF0000C0CEB450212F5001F07D914B099
:1044D0003A462B462146BDE8F04DFFF793BF002238
:1044E000DFF880A3002CB8BF534526DADFF878C385
:1044F0006345A8BF022220DADFF864C39C451CDCB8
:10450000DFF868C30CEB235CBCF1140F08DDCCF1C1
:10451000340627FA06FC0CFA06F6BE420DD108E076
:104520005FB9CCF1140623FA06FC0CFA06F69E429B
:1045300003D10CF00102C2F1020251EA000C19D1C0
:10454000002D17DA002C18BF022A01D0012A07D04B
:104550000220FBF7B7FF14B0BDE8F04DFFF74ABFEC
:104560000220FBF7AFFFFFF745FF14B081F00041D9
:10457000BDE8F08DB7F1000C6CD1534525D104F1A5
:10458000804212F5801201BF00280020B44914B007
:1045900008BFBDE8F08DB248884207DC002DA1BFFE
:1045A0006046294614B0BDE8F08D07E0002DBFBF7E
:1045B000604685F0004114B0BDE8F08DAC49794407
:1045C000D1E9000114B0BDE8F08DDFF894C2634575
:1045D00025D1002D1FDA19B1514512D1D8B909E002
:1045E000002840F0F6829F4A214614B062F31E0173
:1045F000BDE8F08D0020214614B060F31E01BDE837
:10460000F08D08DA14B02346BDE8F04D02460020D4
:10461000614600F005BD14B02146BDE8F08D51455E
:1046200018DAB5F1804F0DD0A5F1005CBCF1FF5C4C
:1046300010D1B4F1000C0DDB14B06146BDE8F04DB3
:1046400000F0F6BB234614B00246BDE8F04D194613
:1046500000F0D8BE060024F0004C3BD1D9B1514542
:1046600033D1002C06DD002DA1BF0020514614B02F
:10467000BDE8F08D002C01DD002D1BDB002C13DAD2
:10468000002D11DB012A4FF0000014BF7549794954
:1046900014B0BDE8F08D022A18BF002C0AD0012A00
:1046A00008D1002C06DA0AE0002CB8BF002D11DA80
:1046B000012A04D0002014B00146BDE8F08D14B0EA
:1046C00000204FF00041BDE8F08DA1F14050B0F165
:1046D0007F601AD0012000EBE47050EA020421D080
:1046E0005F4C521E4FF0000B104304BF4FF0000B05
:1046F000614C624883427DDD614A6248934229DD14
:10470000884217DB002D2FDB41E0002C00DA4AB194
:10471000022A0CBF01204FF0FF3014B0BDE8F04D6D
:1047200000F009BE0120FBF7CDFE14B0BDE8F04D4E
:10473000FFF76ABE4A4A8A420CDC002D14DC0220D4
:10474000FBF7C0FEFFF76EFE61F31E0414B02146B6
:10475000BDE8F08D814202DA002D18DA04E0404B0A
:10476000994220DD002D12DD0220FBF7ABFEFFF7A2
:1047700051FE05460E46002253465846214600F09B
:1047800041FE14B066F31E012846BDE8F08D0220FC
:10479000FBF798FEFFF746FE0A46214614B062F387
:1047A0001E01BDE8F08D00223046614601F050F850
:1047B000064688466FF0010201F0EBFC4FF05532DF
:1047C000314B00F053FF3246434600F01BFE0022FF
:1047D0002E4B00F04BFF8A4632464346029010466D
:1047E000194600F00FFE5346029A00F00BFE824677
:1047F000324600E054E0059143464FF0C040244962
:1048000000F000FECDE90C01224A214B50460599EB
:1048100000F0F8FD824601911F4A204B3046414688
:1048200000F0F0FD5246019B01F012F882460B4663
:1048300002460991DDE90C0100F036FBDDE90C23AD
:1048400000268846304601F003F85246099B00F0E6
:104850000DFF024600F07EB9FFFF1F00FFFF0F00B3
:104860000000F03F0000F07F0000404301FCFFFF2C
:10487000F61C00000000F0FF0000F0BF0000E04167
:104880000000F043FFFFEF3F5555D53F0000E03FEC
:104890004715F73FFE822B6544DF5DF80BAE543EB3
:1048A0000020B1F5801F07DA35223046614601F05D
:1048B00070FC06466FF0340000EB2150A0F2FF3090
:1048C0000190C1F3130040F07F6141F0405102912B
:1048D000FE498842D8BF002004DDFD498142C8BF9F
:1048E000012001DD0F9008E000200F900198401C8E
:1048F00001900298A0F5801002900299F548784442
:1049000005910F9900EBC1001290D0E900233046C9
:10491000059900F09DFFCDE90C011298D0E9002324
:104920003046059900F0C0FA02460B460020EA49DD
:1049300000F076FB0B46CDE908010246DDE90C01EB
:1049400000F060FD0A90E5488A464FF00008784480
:104950000299006810904FF0005040EA61010F98F2
:1049600001EB804000F5002112981191D0E900235D
:10497000109800F06DFF3246059B00F077FE42462E
:10498000534600F03FFDDDE9102306460391404603
:10499000514600F037FDDDE90C2300F067FE32469A
:1049A000039B00F055FFDDE9082300F02BFD039188
:1049B0000A9A129053461046194600F023FD064607
:1049C0000246C7480B46029106217844FFF7BCFC1B
:1049D000029B3246059108901046194600F012FDE0
:1049E000059B089A00F00EFD064609915346404685
:1049F00019460A9A00F058FA039B129A00F002FD39
:104A00003246099B00F050FACDE908014246534670
:104A10001046194600F0F6FC02460B46029104903F
:104A20000020B04900F040FADDE9082300F03CFA2C
:104A30000E464246AB4B404600F00AFF029B049AEA
:104A400000F006FFDDE9082300F010FE4246049165
:104A5000029033461046514600F0D4FCCDE90C01DB
:104A600053460A9A0499029800F0CCFC82460091C1
:104A7000334642460399129800F0C4FC5246009B0C
:104A800000F012FA82460B4602460991DDE90C015C
:104A900000F00AFADDE90C2300268846304600F0D3
:104AA000D7FE5246099B00F0E1FDCDE908014346DF
:104AB00032464FF060408C4900F0A4FC82460491DD
:104AC000DDE90801894A884B00F09CFC02910090C6
:104AD000434632468648874900F094FC029B009A80
:104AE00000F0E2F9844B7B440F9A03EBC203D3E955
:104AF000002300F0D9F900900291019800F01BFC0E
:104B00000E9003915046029B009A049900F0CCF954
:104B10007A4A7A440F9B02EBC3030993D3E900233B
:104B200000F0C2F9039B0E9A00F0BEF988463046A9
:104B3000039B0E9A00F08CFE099BD3E9002300F042
:104B400087FE5246049B00F083FE029B009A00F011
:104B50008DFD024600200B4602903846294600F0A3
:104B600051FC824603912B4638461946029A00F0C2
:104B70006FFE3246434600F045FC5246039B00F070
:104B800093F907468A46324643462946029800F082
:104B900039FC05460E463A46534600F085F9584A18
:104BA0008846914221DBA8EB020353EA000210D1B0
:104BB0002A46334600F04CFECDE90310514A524BD1
:104BC0003846514600F070F9DDE9033200F018FD77
:104BD00021D20220FBF776FCFFF71CFC0A46214697
:104BE00014B062F31E01BDE8F08D484B28F000427E
:104BF0009A4210D3464A08EB020353EA00027FF4BC
:104C0000C6AD2A46334600F023FE3A46534600F02E
:104C1000F7FC7FF6BCAD0022019228F000403D4930
:104C20003D4A01EB2051824223DA481C4FF48011A7
:104C300021FA00F04044394AC0F30A517A44384B13
:104C4000A1F2FF31CB4020EA0303C0F3130040F48C
:104C50008010C1F11401C84012680190B8F1000F32
:104C6000BCBF404201902846314600F0F1FD0546A8
:104C70000E462A4633463846514600F015F94FF0A5
:104C800000084246274B4046039100F0BBFBCDE9AC
:104C90000C01254A254B4046039900F0B3FB0291D5
:104CA00000902A4633464046039900F0D1FD3A462B
:104CB000534600F0DBFC1E4A1E4B00F0A3FB029B98
:104CC000009A00F0F1F80746884635E08E98030018
:104CD0007AB60B002E1900000000F03F66190000A4
:104CE000921800000000084009C7EE3FFD033ADCBF
:104CF000F5015B14E02F3EBE661700002A17000086
:104D000000009040FE822B654715973C00CC9040F8
:104D100000346F3F01FCFFFF0000E03F7816000009
:104D2000FFFF0F00432EE63F396CA80C615C20BEEC
:104D3000EF39FAFE422EE63F02460B46DDE90C0152
:104D400000F0B2F8DDE90C2305460E4600F080FDC8
:104D50003A46434600F08AFC07462A463346059108
:104D60001046194600F04EFB824602462E48884601
:104D70000B4605217844FFF7E7FA5246434600F018
:104D800041FB2A46334600F071FC80468A463A468B
:104D900028463146059B00F035FB3A46059B00F05E
:104DA00083F80591009000224FF080434046514621
:104DB00000F04EFD074603914246534628463146D1
:104DC00000F020FB3A46039B00F02AF9059B009A6D
:104DD00000F03EFD2A46334600F03AFD0022134B18
:104DE00000F044FC054601980E4601EB0051081501
:104DF000002810DC28463146019A01F0CAF9FFF775
:104E00008FFA042808BFFFF70DFB28463146019AA8
:104E100001F0BFF905460B4614B02A465846214614
:104E2000BDE8F04D00F0EEBA181500000000F03FAC
:104E30002DE9F04106460F4600F024FC041E0D4605
:104E400018BF0120284320F00040C0F17F6000F12E
:104E5000E040C00F0ED0301C18BF0120384320F0B6
:104E60000040C0F17F6000F1E040C00F04BF0120AE
:104E7000FBF728FB20462946BDE8F08110B5002944
:104E80000AD00878002807D005487844FBF7FEFED2
:104E9000002801D0002010BD0248784410BD000059
:104EA000161500000E15000010B591EA030F48BF5B
:104EB00083F0004300F1D484841A71EB030C05D213
:104EC000121943EB0C03001B61EB0C014FEA115468
:104ED000A4EB135CDFF81CE11EEA430F18BF9EEA47
:104EE000445F00F0748021EA045123EA0E0343F486
:104EF0008013DCF1200E32D322FA0CFE10EB0E00F0
:104F000023FA0CFE41EB0E01CCF1200E03FA0EFE4B
:104F100010EB0E00CCF1200E51F10001B1F5801F15
:104F200032D201EB045112FA0EF2BDE8104058BF24
:104F30007047401C38BF5FEA420218BF7047002824
:104F400014BF20F0010041F100014FEA410313F5C5
:104F5000001F38BF7047A1F1C04100F04BBB012AD0
:104F600043EB0302ACF1200CDCF11F0E32BF4FF01B
:104F7000000E23FA0CF310EB030041EB0451B4EBE9
:104F8000115FD0D0A1EB045101F58011490801EB6C
:104F900004515FEA30000ED350F1000038BF12FA1E
:104FA0000EFE08D1BDE81040C9E7401C38BF5FEADB
:104FB0004202CAD1C3E7BDE810404FEA410313F5EE
:104FC000001F38BF7047A1F1C04100F013BB9EEA3B
:104FD000445F08D011EA5E0FBDE8104004BF01F045
:104FE000004100207047BDE8104070B500F0B4FAF1
:104FF00064FBBE3E0000E0FF02494FF0000001F0FC
:1050000096B800BF0000F87F491058BFC1F1404179
:105010005B1058BFC3F140438B42EFF300807047F1
:105020002DE9C04130B4DFF8A8C23CEA111418BF22
:105030003CEA131400F0F0801CEA111481EA030525
:1050400044EAD57418BF1CEA131500F0CB80A4EB1A
:10505000050404F17F7404F500344FF0004545EA7F
:10506000C12145EAC32341EA505143EA52534FEA72
:10507000C0204FEAC222994208BF904200F0A080AF
:105080004FEA13650FF24816765D4FEA134506FBAB
:1050900005F7C7F1807706FB07F74FEAD737A7FB7D
:1050A00003687642A7FB06CEC8F5803838BFA8F162
:1050B000010807FB08E6A6FB028C4FF0000EE6FB9A
:1050C00003CED8F100086FEA0C0C5CF1000C6FEA1B
:1050D0000E0E4EF1004EA6FB0C584FF00007E6FBFB
:1050E0000E87A1FB08C6A0FB07CE16EB0E064FF0FD
:1050F000000545F10005E1FB076515F1E04E7EBFB7
:10510000A4F580345FEA46066D4116F1800745F14B
:1051100000054FEA172747EA05674FEA15254FEACA
:105120000666A6F1DE46B6F1805F20D9384605EB6B
:10513000C47124F0010C01EB0C11BCF1FE6F02D81C
:10514000F0BCBDE8008124425CBF01F5801E9EEAF0
:10515000C47F02D4F0BCBDE80081244200F1398054
:10516000A1F1C041F0BCBDE8004100F043BA4FEAF4
:10517000D02040EA41504FEAD1214FEAD22242EA00
:1051800043524FEAD323A7FB028607FB036605FBC6
:1051900002661EEA0E0F58BFA6EB0056B6EB00568D
:1051A0004FEA520E4EEAC37E18EB0E0E56EB530E2C
:1051B000BCD518EB02085E417F1C55F10005B5E730
:1051C0004FF480154FF000074FF000064FF0000835
:1051D000ACE701F1C04101F000414FF00000F0BC2C
:1051E000BDE800810CEA131511EA0C1F00D00CE099
:1051F00013EA0C1F00F025804FF0000081EA030144
:1052000001F00041F0BCBDE80081F0BCBDE8004108
:1052100081EA030100F0EEB9F0BCBDE8004170B5D1
:1052200000F09AF9097EFC3E00F007B84FF000004C
:1052300081EA030101F00041704781EA030100F0B7
:10524000D9B9F0BCBDE8004122494FF000007047D9
:10525000FFFDFBF9F7F5F4F2F0EEEDEBE9E8E6E43B
:10526000E3E1E0DEDDDBDAD8D7D5D4D3D1D0CFCDC2
:10527000CCCBCAC8C7C6C5C4C2C1C0BFBEBDBCBBFB
:10528000BAB9B8B7B6B5B4B3B2B1B0AFAEADACABF6
:10529000AAA9A8A8A7A6A5A4A3A3A2A1A09F9F9ED0
:1052A0009D9C9C9B9A999998979796959594939382
:1052B000929191908F8F8E8E8D8C8C8B8B8A898919
:1052C000888887878685858484838382828181809C
:1052D0000000FF070000F87F4FEA41034FEA5353F5
:1052E000A3F58063D3F11E03C8BFD3F1210C0CDDFD
:1052F0004FF0004242EAC12242EA505232FA03FC25
:105300008CEAE17CACEBE1707047102BC4BF00204D
:10531000704703F5787CBCF1FF3F04D06FF000428A
:1053200082EA2100704770B500F016F94992248096
:1053300000207047F2E710F0004248BF4042B0FA48
:1053400080F310FA03F10AD0C3F11D0303F5806363
:1053500002EB03524FEA415002EBD12170474FF06C
:1053600000007047B0FA80F310FA03F10AD0C3F1DD
:105370001D0303F580634FEA03524FEA415002EBED
:10538000D12170474FF000007047000051EA030C34
:1053900017D41CF5801F58BFBCF5801F00F1068094
:1053A000994218BF704708BF9042704707D711F560
:1053B000801F58BF13F5801F19D499427047894246
:1053C00070471CF5801F08D5BCF5801FF7D58B42B0
:1053D00018BF704708BF824270474FF4001C1CEB97
:1053E000410F38BF1CEB430F01D28B42704770B5A1
:1053F00000F0B2F8922449004FF000514FF0805372
:10540000FFF702BE70B5DFF848C11CEA111E1EBFCF
:105410001CEA13159EEA0C0F95EA0C0F00F06F8042
:1054200081EA03044EEAD47EAE4421EA4C1123EA19
:105430004C1341F4801143F48013AEF17F7EA1FB45
:10544000024CA0FB0365361955EB0C05A1FB034C80
:105450004CF10003A0FB021C16EB0C06654153F156
:105460000003094218BF46F0010613F4007F0BD178
:105470004FEA03314FEA053041EA155140EA165030
:1054800034036FF003020AE04FEAC3214FEAC5205C
:1054900041EA555140EA5650F4026FF0020202EB25
:1054A0002E4201EB025585EACE710AD05FEA440C28
:1054B00018BF24F0004450F1000041F1000120EA3F
:1054C000D47040F2FE7C624500D270BDA84214BF89
:1054D0004FF080444FF04044002E08BF0024BEF13E
:1054E000806FA8BFA1F1C041BDE8704080F282800A
:1054F00001F1C04101F000414FF0000070470CEA9B
:1055000013159EEA0C0F18BF95EA0C0F06D081EA1E
:10551000030E4FF000000EF0004170BD00F01CF8CB
:105520008900013E00F007B800F009B84FEA430CCB
:105530005FEA5C5C08D081EA030100F05BB84FEAE7
:10554000410C5FEA5C5CF6D102494FF00000704705
:105550000000FF070000F87F0EF1020E2EF0030E90
:105560005EF8046B364205D4012A43EB030515F5BA
:10557000001F12D8012841EB010C1CF5001F0CD8AC
:105580000ED14FEAD17C0CEB4C0C0CF1020C15F552
:10559000001F08BF4CEBD37C04E04FF0080C01E087
:1055A0004FEAD37C0CEB4C0526FA05F606F007060D
:1055B000B6F1040C06D20EEB860CBDE870404CF040
:1055C000010C6047DFE80CF0090B02024FF00041CC
:1055D000A1F500214FF0000070BD194610460128CA
:1055E00051EB010418BFD4F5001484BF002001F072
:1055F000004170BD0808A0F500114FEA3101704765
:1056000053EA010C17D41CF5801F58BFBCF5801F4E
:1056100000F106808B4218BF704708BF8242704776
:1056200007D713F5801F58BF11F5801F19D48B427F
:1056300070479B4270471CF5801F08D5BCF5801F42
:10564000F7D5994218BF704708BF904270474FF492
:10565000001C1CEB430F38BF1CEB410F01D29942D9
:1056600070470FB40CBC03BCFFF7C1BE10B591EA84
:10567000030F81F000413FF51FAC83F0004300F0C1
:10568000EFB800002DE9F04101F5801CBCF5001FCA
:10569000C0F2C3804FEA115C21EA0C5141F4801141
:1056A0000CF1FD0C5FEA5C0C0CF5C07C01D34000F2
:1056B0004941890241EA905187023BA48E0EA45DC4
:1056C0000A0C04FB04F602FB06F6C6F14046A4FBF6
:1056D0000662F60D46EA422606FB06F4A4FB012309
:1056E0005242C3F1404338BF5B1EA6FB0242002476
:1056F000E6FB0324D20B42EA4446A6FB0623A1FBA9
:1057000002E2A3FB07E4A4184FF0000252F10002EA
:10571000E3FB01426442C2F1404E38BFAEF1010EDC
:10572000A6FB04234FF00002E6FB0E32A2FB034669
:10573000B6194FF0000454F10004E2FB0264A1FB2F
:1057400006E6A4FB07E816EB08064FF0000858F140
:105750000008E4FB01687642C8F1405838BFA8F160
:105760000108A2FB06E4A3FB08E52D194FF0000495
:1057700054F10004E2FB0854A1FB05E6A7FB04E892
:1057800018EB06084FF0000656F10006E1FB048610
:1057900018F1200556F10006A80940EA8660B10913
:1057A000A8F11B0808F03F08B8F10A0F1CD901EB5B
:1057B0000C51BDE8F08100BFFCF5EEE8E2DDD8D386
:1057C000CFCBC7C3C0BDB9B6B4B1AEACA9A7A5A372
:1057D000A19F9D9B9A9896959392908F8D8C8B8983
:1057E0008887868584838281A0FB006800FB01F2A4
:1057F00008EB4208B8EB872807D5341858EB0104AA
:10580000D5D5401C51F10001D1E7341A78EB0104E1
:10581000CDD4401E71F10001C9E75FEA4C0C5FEA8C
:105820009C5C0DD105D301F000414FF00000BDE8B4
:10583000F081BDE8F04170B5FFF78EFE6DDBFFBE75
:10584000BDE8F04101494FF0000070470000F87FCB
:1058500010B591EA030F48BF83F000433FF52CAB2E
:10586000841A71EB030C07D28CF0004C121943EB35
:105870000C03001B61EB0C014FEA1154A4EB135C09
:10588000DFF8A4E11EEA430F18BF9EEA445F00F070
:10589000B48021EA045123EA6E035242C3EB6E0343
:1058A00038BF5B1EDCF1200E25D322FA0CFE10EB74
:1058B0000E0043FA0CFE41EB0E01CCF1200E03FA70
:1058C0000EFE10EB0E00CCF1200E51F1000129D498
:1058D00001EB045112FA0EF2BDE8104058BF7047B8
:1058E000401C1CBFB2F1004F704700280CBF491C80
:1058F00020F00100704712EB020E43EB030218BFC9
:105900004FF0010E4EEA4202ACF1200CDCF11E0E0B
:1059100056D943FA0CFE10EB0E00CCF11E0E51F1DD
:10592000FF31D5D50EF1010E12FA0EFE404141EBCA
:10593000010101EB445C5FEA5C5C10D901EB0451AE
:1059400010EBDE7038BFBEF1004FBDE8104018BF4D
:10595000704700280CBF491C20F00100704734D26A
:105960004FEAD42C24F4006411F500111BD0B1FAD5
:1059700081F20B3AA41AA41ED2F12003914030FA0E
:1059800003F31943904001EBCC7101EB0451002C5F
:10599000BDE81040A8BF704701F1C04101F00041CF
:1059A0004FF000007047B0FA80F310FA03F102D113
:1059B000BDE810407047E41A173C4805C90AE2E701
:1059C00001EB0451BDE81040704749104FEA300028
:1059D00001EB0451BDE8104002E04FF000017047B8
:1059E0004A0008BF0042F8D0B2F5001F28BF704738
:1059F00001F000414FF0000070479EEA445F07D07D
:105A000011EA5E0FBDE8104004BF0021002070477E
:105A1000BDE8104070B5FFF79FFD00BF40DFF63EC8
:105A2000104683F0004170470000E0FF90EA010F4C
:105A300048BF81F0004100F10A83421A3CBF801A3E
:105A400089184FEAD052A2EBD1534FF07F4C1CEA99
:105A5000410F18BF9CEA026F00F03B804FF0004CF2
:105A60004CEA00204CEA012121FA03FC10EB0C0C5B
:105A70001ED202F1FF325FEA1C2040EBC25038BF59
:105A800070471CF07F0F4FEA400C18BFBCF17F4FEE
:105A900038BF7047C3F12003994008BF20F00100D0
:105AA000BCF17F4F38BF7047A0F1C04000F0C3BACF
:105AB0004FEA3C00000A40EBC25028BF1CF0FF0F29
:105AC0004FEA400CE6D018BFBCF17F4F38BF70479B
:105AD000EAE79CEA026F05D010EA5C0F08BF00F00D
